:020000040800F2
:100000008820002045010008430900080F0200086D
:100010004109000823030008750A000800000000D9
:10002000000000000000000000000000650900085A
:100030002503000800000000970100086709000878
:100040005F0100085F0100085F0100085F01000810
:100050005F0100085F0100085F0100085F01000800
:100060005F0100085F0100085F0100085F010008F0
:100070005F0100085F0100085F0100085F010008E0
:100080005F0100085F0100085F0100085F010008D0
:100090005F0100085F0100085F0100085F010008C0
:1000A0005F0100085F0100085F0100085F010008B0
:1000B0005F0100085F0100085F0100085F010008A0
:1000C0005F0100085F0100085F0100085F01000890
:1000D0005F0100085F0100085F0100085F01000880
:1000E0005F0100085F0100085F0100085F01000870
:1000F0005F0100085F0100085F0100085F01000860
:100100005F0100085F0100085F0100085F0100084F
:100110005F0100085F0100085F0100085F0100083F
:100120005F0100085F0100085F0100085F0100082F
:10013000DFF80CD000F0DCF8004800471503000899
:10014000882000200648804706480047FEE7FEE773
:10015000FEE7FEE7FEE7FEE7FEE7FEE7FEE7FEE777
:100160002D0A000831010008EFF3108072B67047C5
:1001700080F310887047334A1368012B04D04FF086
:1001800001031360304A1060304A116030484FF06C
:10019000805101607047EFF3108272B62948016800
:1001A00091B14FF0000101602748016829B1EFF3D8
:1001B000098121E9F00F0068016024490968096894
:1001C000B1E8F00F81F3098882F310884EF0040E35
:1001D00070471E4908601C494FF00000086019492B
:1001E0004FF0010008601B484FF47F01D0F8002059
:1001F00041EA0201016016484FF080510160164843
:100200000068006880F3088861B662B670471EF027
:10021000040F0CBFEFF30880EFF3098020E9F00F23
:1002200040F804ED1EF0040F0CBF80F3088880F343
:10023000098800B501F064FE5DF804EB4EF0040E91
:1002400070470000E4000020DC000020E0000020F7
:1002500004ED00E020ED00E008ED00E0D2B201E0A6
:1002600000F8012B491EFBD270470022F6E710B5BB
:1002700013460A4604461946FFF7F0FF204610BD14
:10028000421E12F8013F002BFBD111F8013B02F88E
:10029000013B002BF9D1704710B5044604E00B7800
:1002A00000F8013B03B1491C521EF8D2204610BD94
:1002B000421C10F8011B0029FBD1801A704703462D
:1002C00011F8012B00F8012B002AF9D118467047CC
:1002D00030B505460020034600E05B1C934205D282
:1002E000EC5CC85C201A01D1002CF6D130BD0000B6
:1002F000064C074D06E0E06840F0010394E8070073
:1003000098471034AC42F6D3FFF716FFDC320008F2
:10031000FC32000810B5FFF727FF02F065FE002051
:1003200010BDFEE77047000001488068704700007C
:1003300000000020074810B5016841F0100101607D
:10034000032000F067F8002000F006F800F024F821
:10035000002010BD0020024070B50D4D04464FF442
:100360007A712878B1FBF0F00A490968B1FBF0F026
:1003700000F0D0FA48B9102C07D200222146501EB6
:1003800000F028F800206C6070BD012070BD0000F6
:10039000000000200C0000200C4808B5816941F0E5
:1003A00001018161816901F001010091C16941F0A0
:1003B0008051C161C06900F08050009004484168DC
:1003C00021F0E06141F00071416008BD0010024081
:1003D00000000140F0B40E4B1B680C46C3F302232F
:1003E000C3F10705042D00D90425191D072901D2E1
:1003F000002300E0DB1E012606FA05F1491E21401C
:1004000099409E40761E16403143F0BC00F09ABAE7
:100410000CED00E0064900F0070208684FF6FF0304
:10042000184040EA0220034A104308607047000069
:100430000CED00E00000FA052DE9F047DFF85481EB
:1004400005460E46D8F8000000F00700B0420CD276
:10045000D8F8001021F007013143C8F80010D8F88F
:10046000000000F00700B0426FD128684A4C8107B5
:1004700012D5400703D5606840F4E06060602878DA
:10048000000703D5606840F4605060606068A96848
:1004900020F0F000084360602878C00744D0686806
:1004A000012816D02168022816D0890700294CDAC5
:1004B000616821F0030101436160FFF735FF69685E
:1004C000074641F2883001290ED00229814618D012
:1004D00026E021688903E9E78901E7E7FFF724FFC0
:1004E000C11B494501D918E081466068C0F381000D
:1004F0000128F3D118E000BFFFF716FFC11B4945E3
:100500000BD86068C0F381000228F5D10CE000BF71
:10051000FFF70AFFC11B494502D90320BDE8F08758
:10052000606810F00C0FF3D1D8F80010404601F0CD
:100530000701B1420BD9016821F007013143016085
:10054000006800F00700B04201D00120E6E72878FB
:10055000400705D56068E96820F4E0600843606002
:100560002878000706D56068296920F4605040EAC1
:10057000C100606000F016F86168084AC1F3031119
:10058000515CC840064908600020FFF7E5FE0020E6
:10059000C4E70000002002400010024016310008AD
:1005A0000C00002012A185B00FC98DE80F0014A027
:1005B000144A006804905168134801F00C03042B9E
:1005C00010D0082B0ED1C1F38343C9031DF80300DB
:1005D0000AD5516804AAC1F34041515C0A4A50430C
:1005E000B0FBF1F005B0704708494843FAE7000056
:1005F00002030405060708090A0B0C0D0E0F101064
:10060000010200000010024000127A0000093D00C3
:100610002DE9F84F04460078B94DC00748D0686806
:10062000C0F38100012807D06868C0F38100022868
:1006300009D16868C00306D52868800338D560688A
:1006400000286FD034E06068B0F5803F0BD010B167
:10065000B0F5A02F11D0286820F4803028602868D9
:1006600020F4802002E0286840F480302860606830
:1006700088B1FFF759FE064609E0286840F480205B
:100680002860F0E7FFF750FE801B642875D82868C3
:100690008003F7D50CE0FFF747FE064605E000BFF4
:1006A000FFF742FE801B6428F0D828688003F7D447
:1006B0002078944E80074FF001094FF000083BD599
:1006C000686810F00C0F07D06868C0F3810002283A
:1006D00009D16868C00306D42868800714D520694A
:1006E00001281FD110E02069B0B1C6F80090FFF7D3
:1006F0001BFE074605E000BFFFF716FEC01B0228E1
:10070000C4D828688007F7D52868616920F0F80008
:1007100040EAC10028600FE0C6F80080FFF704FE41
:10072000074606E0E9E000BFFFF7FEFDC01B022818
:1007300023D828688007F7D4207800072CD5724882
:10074000A169D9B1C0F80090FFF7EEFD074604E0BB
:10075000FFF7EAFDC01B02280FD8686A8007F7D5AB
:100760006A484FF4FA510068B0FBF1F0009000BF06
:100770000098411E0091FAD20EE080E0C0F800809F
:10078000FFF7D2FD074604E0FFF7CEFDC01B0228AD
:1007900075D8686A8007F7D42078400760D5E86983
:1007A0000027C00008D4E86940F08050E861E8699B
:1007B000012700F08050009055480168C90513D406
:1007C0000168834641F480710160FFF7ADFD824608
:1007D00006E000BFFFF7A8FDA0EB0A0064284ED892
:1007E000DBF80000C005F5D5E06801280AD008B1A3
:1007F000052813D0286A20F001002862286A20F01A
:10080000040002E0286A40F001002862E06841F23A
:10081000883B98B1FFF788FD82460BE0286A40F0DC
:1008200004002862EEE700BFFFF77EFDA0EB0A019F
:1008300059455AD8286A8007F6D50CE0FFF774FDB1
:10084000824605E0FFF770FDA0EB0A0159454CD840
:10085000286A8007F6D41FB1E86920F08050E8616B
:10086000E06988B36968C1F38101022945D0022893
:10087000C6F8608004D0FFF757FD044638E034E046
:10088000FFF752FD074604E0FFF74EFDC01B0228AC
:100890002BD828688001F7D4206AB0F5803F05D1B5
:1008A0006868A16820F4003008436860D4E9080152
:1008B0000843696821F4741108436860C6F86090C1
:1008C000FFF732FD044606E015E000BFFFF72CFD00
:1008D000001B022809D828688001F7D50BE000BF6B
:1008E000FFF722FD001B022802D90320BDE8F88F84
:1008F00028688001F4D40020F8E70120F6E7000022
:100900000010024000004242800442420C000020DD
:100910000070004010B5401EB0F1807F01D301206F
:1009200010BD4FF0E02460610F21601700F00AF85D
:100930000020A06107202061002010BD7047704793
:10094000FEE770470907090E002806DA00F00F00DD
:1009500000F1E02080F8141D704700F1E02080F8DD
:1009600000147047704710B501F0E4FB02F016F96F
:10097000BDE8104001F0F2BB30B58FB028216846C9
:10098000FFF773FC14210AA8FFF76FFC0224012073
:10099000049000941020059000254FF46010CDE9DC
:1009A000085007946846FFF733FE0AA90F2081E834
:1009B00031006002CDE90D0502210AA8FFF73CFDD8
:1009C0000FB030BD144910B54868144A10F00C033C
:1009D000134803D0042B01D0082B09D002604968CA
:1009E000104AC1F30311515C0268CA40026010BD95
:1009F0004A684B6802F470124FF0020413F4803F0F
:100A000004EB924202D04B689B0301D5064B00E0F9
:100A1000024B5A43E2E700000010024000127A0045
:100A20000C0000201631000800093D000D48016847
:100A300041F00101016041680B4A114041600168C9
:100A40000A4A11400160016821F480210160416877
:100A500021F4FE0141604FF41F0181600449C0038D
:100A600008607047001002400000FFF8FFFFF6FE2C
:100A700008ED00E0FEE70000002806D00E4910F067
:100A8000FF0F03D0C0B2085C401C704710F47F4FCA
:100A900004D0C0F30720085C0930704710F47F0FC2
:100AA00004D0C0F30740085C1130704701EB1060C0
:100AB00000781930704700002631000802E008C8AD
:100AC000121F08C1002AFAD170477047002001E0C8
:100AD00001C1121F002AFBD17047000003480168C2
:100AE000814201D00120704700207047C4000020DF
:100AF0002DE9FC41074627A40146204600F03EFFB1
:100B000080460146224626A001F036FB404600F012
:100B100051FF2AA001F030FB3D6835E0A96805F1DE
:100B20000800A5F10C04814204F1140020D006460F
:100B300001F062FBA18BCDE900102346082241465B
:100B400024A001F019FB34680CE000BFA4F11401EB
:100B500024A001F011FB2068B04202D022A001F0D5
:100B60000BFB2468B442F1D113A001F005FB0AE0AD
:100B700001F042FBA18BCDE900102346082241463B
:100B80001AA001F0F9FA2D68BD42C7D10020BDE8D6
:100B9000FC81000073656D6170686F726500000014
:100BA000252D2A2E73207620202073757370656E94
:100BB00064207468726561640A000000202D2D2D88
:100BC000202D2D2D2D2D2D2D2D2D2D2D2D2D2D0A85
:100BD00000000000252D2A2E2A73202530336420A2
:100BE00025643A00257300002F000000252D2A2ED1
:100BF0002A7320253033642025640A002DE9FC4146
:100C0000064628A40146204600F0B8FE07460146E5
:100C10002246264801F0B0FA384600F0CBFE24A068
:100C200001F0AAFA356838E095F82900A5F10C041E
:100C300000902346082239462DA001F09DFA94F831
:100C4000340000F00F00012805D0022805D030B193
:100C5000042806D008E029A004E02BA002E02DA083
:100C600000E02FA001F088FAA06A014600E0401CD5
:100C70000278232AFBD0E26A64231144081A5843FD
:100C8000B0FBF2F3D4F830C0206CCDE9000CE06981
:100C9000091A26A001F070FA2D68B542C4D10020CF
:100CA000BDE8FC81746872656164000084320008EC
:100CB000202D2D2D20202D2D2D2D2D2D2D202D2D98
:100CC0002D2D2D2D2D2D2D2D202D2D2D2D2D2D2D61
:100CD0002D2D2D20202D2D2D2D2D2D20202D2D2D78
:100CE0002D2D2D2D2D2D2D202D2D2D0A0000000018
:100CF000252D2A2E2A732025336420002072656159
:100D000064792020000000002073757370656E64A4
:100D10000000000020696E6974202020000000009F
:100D200020636C6F73652020000000002030782560
:100D30003038782030782530387820202020253031
:100D40003264252520202030782530387820253041
:100D500033640A002DE9FC41054619A401462046EA
:100D600000F00CFE06460146224617A001F004FAE8
:100D7000304600F01FFE1EA001F0FEF92C6814E0C2
:100D8000A4F10C031F460822D7E90901CDE90001AF
:100D9000314620A001F0F0F9787AC00701D023A0F5
:100DA00000E025A001F0E8F92468AC42E8D101F0A8
:100DB000EFFE014624A001F0DFF90020BDE8FC8130
:100DC00074696D6572000000252D2A2E7320207035
:100DD0006572696F64696320202074696D656F7541
:100DE0007420202020202020666C61670A0000000B
:100DF000202D2D2D2D2D2D2D2D2D2D202D2D2D2D3D
:100E00002D2D2D2D2D2D202D2D2D2D2D2D2D2D2D1F
:100E10002D2D0A00252D2A2E2A73203078253038D2
:100E200078203078253038782000000061637469BC
:100E300076617465640A0000646561637469766153
:100E40007465640A0000000063757272656E742038
:100E50007469636B3A3078253038780A00000000F6
:100E60002DE9F04F89B092468B460646002400E0FB
:100E7000641C305D202803D0092801D05C45F7D3DD
:100E80004FF0FF387CB3194804F10609184F056884
:100E900011E0062217A12868FFF71AFA50B928684E
:100EA00022463146801DFFF713FA18B9296811F858
:100EB000090020B1083538688542EAD314E06C682F
:100EC0008CB120216846FFF7D0F96A465946304672
:100ED00000F0ECFC38B16946A047CAF800000020D9
:100EE00009B0BDE8F08FFFE74046F9E74800002071
:100EF0004C0000205F5F636D645F00002DE9FC41E2
:100F00001F460446DDE90831DDE90A65143040601A
:100F10000060C4E90827C4E90A310A4623211846BB
:100F20001C3401F017FAD4E903014218D4E9010195
:100F3000104B121F01F0E2F844F81A0B002004F8DD
:100F400001690D4A04F8036BE4E8020544F81059FE
:100F500001C404F83C0B01C444F874090090234612
:100F60000190194604F1440001F08AFE0020BDE81A
:100F7000FC810000212900080F2B000810B5029CFD
:100F800024F001044472C0E907120021C0E90931CC
:100F900014304060006010BDF0E905124A60D0E9ED
:100FA00000121160406000607047000010B51BA087
:100FB00001F0E2F81C4C21781CA001F0DDF820784B
:100FC000C00702D01FA001F0D7F82078800702D513
:100FD0001FA001F0D1F82078400702D51FA001F032
:100FE000CBF82078000702D520A001F0C5F82078C2
:100FF000C00602D520A001F0BFF82078000607D572
:1010000009480F300168BDE810401DA001F0B4B8D8
:10101000BDE810401EA001F0AFB80000627573205B
:101020006661756C743A0A0029ED00E05343425F33
:10103000434653525F424653523A30782530325835
:101040002000000049425553455252200000000044
:10105000505245434953455252200000494D505289
:10106000454349534552522000000000554E535409
:101070004B4552522000000053544B455252200021
:101080005343422D3E424641523A253038580A00D9
:101090000A000000104810B5416891F82110890736
:1010A00003D40E490020087013E0016821B18022AA
:1010B0000A48FFF7F1F80CE000F0F6FB08B108A1D0
:1010C00000E009A10548FFF7FAF809A10348FFF776
:1010D000D7F8024810BD000010000020E8000020F2
:1010E0006D7368200000000066696E736820000060
:1010F0003E000000034810B5406801F05BFA002094
:1011000010BD00001000002070B5044600F092FDF4
:10111000050027D0174C6068406FA84228D040F2E5
:101120004311284600F0B0FD002821D16068406FCF
:1011300030B100F067FD60680021406F00F00AFEEA
:10114000606850212230FFF790F86068002180F835
:10115000721080F8731045672846BDE87040064954
:1011600000F0F8BD2146BDE8704004A001F004B8CD
:1011700070BD000010000020F510000866696E7355
:10118000683A2063616E206E6F742066696E642019
:101190006465766963653A2025730A0003494968E6
:1011A00011F8212F60F341020A70704710000020EF
:1011B0007CB57821012000F0E1FC124C6060D0B1D8
:1011C0000A210520CDE900014FF4805300220E4989
:1011D0000EA001F080FB054600231A460DA16068B1
:1011E00001F0D6F90120FFF7D9FF15B1284601F02B
:1011F00057FC00207CBD09A000F0BEFF4FF0FF307F
:101200007CBD000010000020351200087473686572
:101210006C6C000073687278000000006E6F206DC7
:10122000656D6F727920666F72207368656C6C0AE9
:1012300000000000A54C08B5606890F8211041F04E
:10124000010180F82110406F20B900F0C1FC08B105
:10125000FFF75AFFFFF71EFF00F08EFF4FF0FF363B
:10126000002703E03146606801F0BFF960680123A0
:101270006A46406F314600F05BFD0128F2D19DF8CF
:1012800000501B2D07D0606890F82010012907D06E
:1012900002290ED017E06168012081F82000E5E7FF
:1012A0005B2D02D080F820700DE0022180F8201024
:1012B000DCE780F82070412DD8D0422DD6D0442DC7
:1012C00038D0432D42D0002DD0D0FF2DCED0092DC7
:1012D0004DD07F2D74D0082D72D00D2D6FD00A2DDA
:1012E000FCD090F87210502901D380F8727090F8F9
:1012F000733090F872108B427ED2CA1A00F122012C
:1013000023301944184401F00BF8606890F873100A
:1013100022300D54606890F82110C90706D090F86B
:101320007310223001446AA000F026FF616891F832
:101330007350A8E090F87300002897D065A000F0E3
:101340001BFF606810F8731F491E0EE090F87310C1
:1013500090F87220914289D22230095C5EA000F0A0
:101360000BFF606810F8731F491C01707EE70025B1
:1013700003E058A000F000FF6D1C606890F8730057
:10138000A842F6DC656855A0223500F0F5FE00F0B5
:101390008BFA012802D1284600F0C8F9FFF77AFE3F
:1013A00001462A464EA000F0E7FE60682230FEF7B4
:1013B0007FFF616801F8720F487057E700E03FE077
:1013C00090F873100029D1D090F87220491E521E57
:1013D000D2B2C9B280F87220254680F873108A42D2
:1013E00025D900F123032230521A0B440844194630
:1013F00000F096FF606800E04BE090F87210223039
:101400000F54606890F873102230014436A000F049
:10141000B3FE606890F8735003E02EA000F0ACFEBD
:101420006D1C606890F87200A8429FDBF5E730A061
:1014300000F0A2FE686890F8721022300F5415E791
:1014400000F032FA01280ED16068254690F821009C
:10145000C00702D021A000F08FFE686890F87210DB
:10146000223000F0B9F9FFF715FE00F085FE606844
:10147000502125462230FEF7F8FE686822E015A0CC
:1014800000F07AFE6D1C606890F87200A842F6DCED
:101490000AE022300D54606890F82100C00703D0A4
:1014A00029460DA000F068FE606890F87210491C93
:1014B000C9B280F8721090F87320521C80F8732023
:1014C0005029BCD300F8727F4770CFE6100000208F
:1014D0002573000008000000256300000A000000DA
:1014E00025732573000000000825732020080000E4
:1014F0000820080010B5124C2068800702D511A002
:1015000000F03AFE2068400011D50D48C01E00785A
:1015100008B1FFF74BFD0A48001F007808B100F042
:1015200099F80748801E008808B101F087FD2068FF
:10153000002804DABDE8104008A000F01DBE10BD70
:101540002CED00E06661696C656420766563746FFC
:10155000722066657463680A000000006465627545
:1015600067206576656E740A0000000010B502A061
:1015700000F002FE002010BD48656C6C6F205254D4
:101580002D546872656164210A00000070B50BA0DB
:1015900000F0F2FD0E480F4D04680AE002220EA191
:1015A0002068FEF795FE18B10CA0216800F0E4FD5C
:1015B000083428688442F1D3002070BD2D2D467573
:1015C0006E6374696F6E204C6973743A0A00000090
:1015D000480000204C0000205F5F000025730A00D7
:1015E00010B5012000F024FFBDE81040001DFFF7FA
:1015F0007FBA10B5002000F01BFFBDE81040001DB1
:10160000FFF7FCBA10B5092000F012FFBDE810404A
:10161000001DFFF79FBB000008B5FEF78BFEFFF72C
:10162000ABF90748816941F004018161806900F0EC
:1016300004000090FFF782F9FFF781F9FCE7000052
:101640000010024010B500F0B5FABDE81040FFF7F9
:10165000E3BF000010B518A000F08EFD1B4C2178F0
:101660001BA000F089FD2078C00702D01EA000F06A
:1016700083FD2078800702D51EA000F07DFD207834
:10168000000702D51EA000F077FD2078C00602D525
:101690001EA000F071FD2078000607D50B480C3025
:1016A0000168BDE810401CA000F066BDBDE8104018
:1016B0001D4800F061BD00006D656D206D616E61BB
:1016C0006765206661756C743A0A000028ED00E0D9
:1016D0005343425F434653525F4D4653523A30782C
:1016E00025303258200000004941434356494F4CB1
:1016F000200000004441434356494F4C2000000065
:101700004D554E53544B4552522000004D53544BAF
:1017100045525220000000005343422D3E4D4D41A2
:10172000523A253038580A00AC3000082DE9F0470D
:101730008046002500782C4618B12248224F0668C2
:1017400031E0BDE8F0470021084600F077B80622F6
:101750001EA13068FEF7BCFD20BB306800F1060911
:101760004046FEF7A5FD024649464046FEF7B0FD5D
:10177000C0B925B94C464846FEF79AFD054649468C
:10178000204601E0401C491C02781AB10B780BB1CD
:101790009A42F7D0001BA84200DA054649460DA040
:1017A00000F0EAFC083638688642D0D3002C06D018
:1017B0002A4621464046BDE8F04700F0EDBFBDE8AF
:1017C000F0870000480000204C0000205F5F636D40
:1017D000645F000025730A0038B5044601E0491E25
:1017E000641C20782028FAD00928F8D031B16A4644
:1017F0002046FFF735FB18B1204604E0002038BD35
:10180000009838BD401C0178202901D00029F9D169
:1018100000210170214603A000F0AEFC4FF0FF3024
:1018200038BD000025733A20636F6D6D616E6420D2
:101830006E6F7420666F756E642E0A0070B50DA011
:1018400000F09AFC1248134D04680BE0062212A126
:101850002068FEF73DFD20B9216811A0891D00F028
:101860008BFC083428688442F0D30EA000F084FC7E
:10187000002070BD52542D546872656164207368F5
:10188000656C6C20636F6D6D616E64733A0A000065
:10189000480000204C0000205F5F636D645F000023
:1018A000257320000A0000000120704770B5002356
:1018B00015461C461A464BE000F8012B5B1C0678C7
:1018C000202E01D0092E01D18B42F5D3082C11D343
:1018D00021A000F051FC002606E000BF55F82610BC
:1018E00025A000F049FC761CA642F7D321A000F009
:1018F00043FC2FE08B422DD2F6B2222E03D045F8C6
:101900002400641C1BE0401C45F824005B1C641C84
:1019100008E05C2E04D14678222E01D1401C5B1CCD
:10192000401C5B1C0678222E01D08B42F1D38B42E7
:1019300010D200F8012B5B1C0AE0401C5B1C0678EF
:10194000202E03D0092E01D08B42F6D38B4201D238
:101950008B42B4D3204670BD546F6F206D616E7999
:1019600020617267732021205765206F6E6C79208B
:101970005573653A0A0000002573200070B50E46C5
:1019800000F0F2FE054600F0FBF9346808E000BF05
:10199000A4F10C0000F0E8FEA84200DD0546246832
:1019A000B442F5D100F0FAF9082D00DC05B908259C
:1019B000284670BD10B5044602E003A000F0DCFB31
:1019C000641EFAD210BD00002D00000030B513498E
:1019D00043680A68134402F1080498420DD05D88F8
:1019E0005DB94D68AB4208D08D689D4200D18860DA
:1019F0005D6845605B68851A1D51836813448342A6
:101A00000BD05D88002D08D18D68854200D18B6098
:101A1000416859604068991A015130BD600000204A
:101A20002DE9F04F85B09946DDE90EA5109CAB4637
:101A3000630602D5DFF814C103E0DFF810C1ACF192
:101A4000110CE30601D524F00104E30701D0302393
:101A500000E0202300260493A3070BD5002A02DA16
:101A60002D26524206E0630701D52B2602E023070C
:101A700000D520260023EE4622B930228DF8002022
:101A800001230CE0B9F10A0F14D002F00F0812097B
:101A90001CF808800EF803805B1C002AF2D1AB42D0
:101AA00000DD1D46AAEB050214F0110F4FF02007D0
:101AB00008D015E00A27B2FBF7F807FB1828B2FB9D
:101AC000F7F2E5E73EB1002A05DD521E03E0884249
:101AD00000D80770401CB2F1000CA2F10102F6DC44
:101AE00026B1884201D80670521E401CE40605D576
:101AF00008E0884201D8049C0470401C141EA2F126
:101B00000102F6DC30242E466D1E9E420ADD88421C
:101B100000D80470401CF6E7884201D8E55C0570E7
:101B2000401C00E074461D1EA3F1010307DDBBF15C
:101B3000000FF1D103E0884200D80770401C131E4B
:101B4000A2F10102F7DC05B0BDE8F08F37320008E2
:101B50001CB514210A20CDE900014FF48063002256
:101B6000034904A000F0B7FEBDE81C4000F098BF98
:101B7000451600086D61696E0000000070B54843AD
:101B8000044600F055FB050003D02246002100F07A
:101B9000E1FB284670BD000070B5044C044D02E026
:101BA00020688047241DAC42FAD370BDCC320008B7
:101BB000D032000870B5044C044D02E02068804724
:101BC000241DAC42FAD370BDD0320008D8320008D0
:101BD00001480068704700005800002070B5084CAC
:101BE000266800F027F8050008D0206808B100F04A
:101BF00009F84321284600F047F82560304670BDBB
:101C00005800002010B504460020A17E29B1491ECD
:101C100011F0FF01A17603D010BD4FF0FF3010BDD1
:101C2000E16A21B12046884708B1811DF7D1002122
:101C3000218310BD2DE9F041064600F02BFF08B1CD
:101C400000F09EF8082000F0F3FB50F8044F074620
:101C500009E000BFA4F10C0508223146284600F037
:101C60008BFD50B12468BC42F4D100F013FF08B1E1
:101C700000F094F80020BDE8F08100F00BFF08B1FF
:101C800000F08CF82846F6E770B50446807D002504
:101C90000E46C0060FD4616A49B120468847050048
:101CA00005D00246214614A000F066FA21E0E08A41
:101CB00040F01000E082A07D000705D5207E0007DF
:101CC00002D56FF0060070BDA26A3AB131462046D7
:101CD0009047050006D0A81D04D00AE040F60F701A
:101CE00006402683208B40F008002083A07E401C05
:101CF000A076284670BD0000546F20696E69746933
:101D0000616C697A65206465766963653A2573203C
:101D10006661696C65642E20546865206572726F17
:101D20007220636F64652069732025640A000000D7
:101D300010B5847E2CB1046B34B1A446BDE81040CC
:101D400060474FF0FF3001E06FF0050000F0A4FCA9
:101D5000002010BDC1610020704710B5847E2CB1F9
:101D6000446B34B1A446BDE8104060474FF0FF30EB
:101D700001E06FF0050000F08FFC002010BD0000B6
:101D800010B5FEF7F1F9044A5188491C5180BDE8AD
:101D90001040FEF7EDB90000B800002010B5FEF7C6
:101DA000E3F909494A88521E12B24A80002A07DC28
:101DB00000224A80FEF7DCF9BDE8104000F070BB5D
:101DC000BDE81040FEF7D4B9B800002070B5002877
:101DD00033D01A4D296888422FD3696888422CD2A3
:101DE000A0F10C044FF0FF31154800F0FEFB6088B5
:101DF0004FF4F55610B12088B04208D011A000F081
:101E0000BBF923886288214615A000F0B5F90020AF
:101E100060802680A868844200D2AC60296860682F
:101E2000611A401A2969081A28612046FFF7CEFD79
:101E3000BDE87040024800F0BDBB70BD60000020EE
:101E4000641B0020746F20667265652061206261EA
:101E500064206461746120626C6F636B3A0A0000F5
:101E60006D656D3A203078253038782C2075736593
:101E70006420666C61673A2025642C206D61676977
:101E80006320636F64653A203078253034780A0027
:101E9000004870476C010020004870476C19002012
:101EA00010B5FEF78FFD11484FF47A710068B0FB52
:101EB000F1F0401EB0F1807F09D24FF0E0210C4AD2
:101EC0004861FF2010700020886107200861FFF73B
:101ED00063FE08A0FFF782FEFFF7DEFF0446FFF770
:101EE000D7FF2146BDE8104000F06ABC0C0000207E
:101EF00023ED00E07561727430000000704700004F
:101F000070B50546041D2D48016819B1284688475B
:101F1000002851D02AA0E16B00F02EF92CA0216AF4
:101F200000F02AF92EA0616A00F026F930A0A16A1B
:101F300000F022F932A0E16A00F01EF934A0216815
:101F400000F01AF936A0616800F016F938A0A1680F
:101F500000F012F93AA0E16800F00EF93CA0216906
:101F600000F00AF93EA0616900F006F940A0A169FD
:101F700000F002F942A0E16900F0FEF844A0216BF4
:101F800000F0FAF846A0616B00F0F6F848A0A16BEB
:101F900000F0F2F82878400708D500F07BFD0146F4
:101FA00047A000F0E9F8FFF724FB02E04CA000F0A6
:101FB000E3F8FFF79FFAFEE770BD0000D8000020AD
:101FC0007073723A203078253038780A00000000AB
:101FD0007230303A203078253038780A000000001E
:101FE0007230313A203078253038780A000000000D
:101FF0007230323A203078253038780A00000000FC
:102000007230333A203078253038780A00000000EA
:102010007230343A203078253038780A00000000D9
:102020007230353A203078253038780A00000000C8
:102030007230363A203078253038780A00000000B7
:102040007230373A203078253038780A00000000A6
:102050007230383A203078253038780A0000000095
:102060007230393A203078253038780A0000000084
:102070007231303A203078253038780A000000007C
:102080007231313A203078253038780A000000006B
:102090007231323A203078253038780A000000005A
:1020A000206C723A203078253038780A0000000021
:1020B0002070633A203078253038780A000000001C
:1020C00068617264206661756C74206F6E2074683C
:1020D000726561643A2025730D0A0D0A0000000044
:1020E00068617264206661756C74206F6E2068612F
:1020F0006E646C65720D0A0D0A00000070B504462E
:10210000121D22F007000022094D403840F82250ED
:10211000521C102AFAD301620021416281624FF001
:10212000807200F13005C263C16285E81A0070BD9B
:10213000EFBEADDE10B5FEF717F8044A1178491C62
:102140001170BDE81040FEF713B8000054000020E5
:1021500001480078704700005400002010B5FEF7D9
:1021600003F8044A1178491E1170BDE81040FDF7CC
:10217000FFBF0000540000200FB47F2170B505ABF5
:102180000D48049A00F0EEFD03467F2800D97F2316
:102190000A4D286860B1048B074A44F0400101836E
:1021A0000021FFF7DAFD2868048370BC5DF814FB9A
:1021B0000148FFF7A3FEF8E7E41A002058000020CA
:1021C0000268516002680A600160486070470268F6
:1021D000516002680A60016048607047026851609F
:1021E00002680A6001604860704742681160426896
:1021F0004A604160086070470246002100E0491CC7
:1022000000689042FBD108467047D0E900124A604E
:10221000D0E900121160406000607047D0E9001200
:102220004A60D0E900121160406000607047000011
:102230002DE9F047002807D0374CC01C20F00306DA
:10224000E068864202D90020BDE8F0870C2E00D25B
:102250000C264FF0FF31314800F0C7F9D4F808C020
:102260002168E768ACEB0100BA1B4FE00D186B88E2
:10227000E3BB6B681B1A0C3BB34246D36A6806F19A
:102280001803121A0C3A4FF001094FF4F55A9A420A
:102290002DD383190C33CA184FF00008A2F800A000
:1022A000A2F80280D5F80480C2E901806B60A5F82D
:1022B000029050680C37B84202D001F108028350F6
:1022C000206930440C3020616269824200D2606132
:1022D000A5F800A0654512D1A06842887AB162686D
:1022E00090420CD040680844A060F6E70DE0A5F8E5
:1022F000029068686A1A801A22691044E3E7074866
:1023000000F058F905F10C009EE768688242ADD8EC
:10231000024800F04FF996E760000020641B00209F
:1023200010B50346994211D28C189C420ED98118DF
:1023300004E000BF14F8013D01F8013D521EF9D23E
:1023400010BD00BF11F8014B03F8014B521EF9D22A
:1023500010BD000010B50346CCB2042A1AD3810781
:1023600018D1194644EA042343EA034306E008C1AE
:10237000103A08C141F8083B41F8043C102AF6D253
:1023800001E008C1121F042AFBD20B4602E000BF85
:1023900003F8014B521EFBD210BD2DE9F0410F4650
:1023A000064600F045F80546C068FFF741FF040007
:1023B00019D00021EA68FFF7CDFF26720020607275
:1023C00008223946204600F0E7F9FDF7CDFE064623
:1023D00004F10C01281DFFF7F3FE3046FDF7C8FE9F
:1023E0002046BDE8F0810020FBE770B504460020E0
:1023F0002072FDF7B9FE054604F10C00FFF705FF5A
:102400002846FDF7B5FE2046BDE87040FFF7DEBC6C
:1024100070B5044600202072FDF7A6FE054604F1C3
:102420000C00FFF7F2FE2846BDE87040FDF7A0BEA5
:10243000074A002102EB01131B78834202D102EB11
:1024400001107047491C0429F4DB0020704700008C
:10245000780000202DE9F041044616460D46084656
:10246000FFF7E6FF074645F080002072082231465C
:10247000204600F091F9FDF777FE054604F10C01C6
:10248000381DFFF79DFE2846BDE8F041FDF770BE00
:10249000007A000601D50120704700207047000037
:1024A00070B5FDF761FE114C05466088B0B9A068B3
:1024B000FEF7E2FA0E49401E626851F830101439F6
:1024C00091420BD020700B486160007801F11C0133
:1024D000002802F11C0006D0FDF74DFE2846BDE89D
:1024E0007040FDF745BEFDF746FEF7E7B800002057
:1024F000841B00205400002010B50446FDF734FE74
:10250000024694F834000E4920F00F00401C84F875
:10251000340094F8350001EBC00104F114004B685D
:1025200018604B68A361486006486161A16B8368CD
:1025300019438160BDE810401046FDF719BE000048
:10254000841B0020B800002010B50446FDF70CFEE7
:1025500004F11401D1E900235360D1E900231A608A
:10256000A161616194F83520074951F8323001EBDF
:10257000C2018B4204D10549A36B8A689A438A60E1
:10258000BDE81040FDF7F4BD841B0020B80000201A
:102590002DE9F04116460A461F4605460121FFF780
:1025A00059FF05F11404AC616C61AE836F720020B9
:1025B000BDE8F08170B50446FDF7D6FD05466069BB
:1025C00004F11401884208D0143800F045FA284676
:1025D000FDF7CEFDFFF764FF05E0A08B401CA08354
:1025E0002846FDF7C5FD002070BD2DE9F3410446E6
:1025F000FDF7BAFD0746A08B28B1401EA0833846E0
:10260000FDF7B6FD46E0019870B100F043FA0646CA
:102610000020306304F11405647A304600F056FA65
:10262000F4B1012C21D106E03846FDF7A1FD6FF091
:102630000100BDE8FC812C680EE096F8351094F896
:102640002120A4F11400914205D206F114011430A6
:10265000FFF7CBFD02E02468AC42EED1AC4204D1DE
:1026600006F114012846FFF7C0FD0198002809DD96
:1026700006F1440001AA0021044600F0D9FA2046E0
:1026800000F012FB3846FDF773FDFFF709FF306BD2
:102690000028CED10020CCE770B50446FFF758FDE6
:1026A000044D20B900F0F6F908B1046370BD6C6008
:1026B00070BD00005800002008B509A0FFF75CFDC0
:1026C0000AA0FFF759FD12A0009002230122032166
:1026D00012A0FFF751FDBDE8084018A0FFF74CBD60
:1026E0000A205C207C202F0A000000002D2052547C
:1026F000202D2020202020546872656164204F70B6
:1027000065726174696E672053797374656D0A0030
:102710004A756E203234203230313900202F207C2F
:10272000205C202020202025642E25642E25642076
:102730006275696C642025730A0000002032303015
:1027400036202D203230313920436F70797269671D
:1027500068742062792072742D74687265616420D7
:102760007465616D0A000000014600E0491C0A78AA
:10277000002AFBD1081A704710B5002308E004783E
:1027800011F8013BE31A5BB223B9401C14B1521E8D
:10279000002AF4D1184610BD10B5002A07D0034610
:1027A00011F8014B03F8014B2CB1521EF8D110BDAA
:1027B00003F8011B00E00021521EF9D110BD0000FA
:1027C0000A46C11C10B522F0030321F00301182BA7
:1027D00020D9A3F118048C421CD3114C581A183874
:1027E0002160E0604FF4F5520A8000230C30C1E90B
:1027F00001034B804B68194461600A8001224A80C2
:1028000048608860002307A10848FFF7C1FE2068E0
:10281000A06010BD0146BDE8104005A0FFF7ACBCAC
:10282000600000206865617000000000641B0020EB
:102830006D656D20696E69742C206572726F7220EF
:10284000626567696E2061646472657373203078B5
:1028500025782C20616E6420656E6420616464724A
:1028600065737320307825780A00000010B50A4996
:1028700000230A4C4B80184604EBC002401C5260F7
:1028800012602028F8DB1F20087003484B600C30D2
:102890008B604060006010BDB8000020841B0020E9
:1028A00010B5074CA068FEF7E7F80649401E51F83E
:1028B000300014386060BDE810401C30FDF789BC62
:1028C000B8000020841B0020014840600060704771
:1028D000D000002070472DE9FF478946DDE90C76DE
:1028E000824601461D4690460020FFF756FD041E15
:1028F0000DD02846FFF79CFC60B103968DE8A1003F
:1029000043464A4651462046FEF7F8FA204604B0B0
:10291000BDE8F0872046FFF768FD0020F7E70000DC
:1029200070B513480468FDF71FFC05462046FFF705
:102930000BFE042084F8340004F1440000F090F908
:102940002046FFF7A5FD012801D1206F58B104F101
:1029500014010848FFF73BFC2846FDF709FCBDE8D9
:102960007040FFF79DBD2046FFF752FDF4E70000E1
:10297000BC000020C400002000F002F8FCE70000CA
:1029800070B527E0FDF7F0FB0546FEF7A7F840B36A
:1029900016480168A1F11404D1E900024260D1E9AE
:1029A0000002106049600960FFF7EAF9216F09B180
:1029B000204688472046FFF76BFD01280FD0FFF720
:1029C000EDF92846FDF7D4FBA06AFFF7FFF9204692
:1029D000FFF70BFDFEF782F80028D3D170BDFFF79B
:1029E000DDF92846BDE87040FDF7C2BBC4000020F9
:1029F0001FB5202308481F22D9008DE80F000023AF
:102A0000064A07A1783800F00FF804B00248BDE884
:102A10001040783800F044B8E41900207929000803
:102A20007469646C650000002DE9FF5F92460EAA90
:102A30000C4692E8E0010A46994683460021FFF7DA
:102A400009FD8DE8E0014B46524621465846FEF707
:102A500055FA04B0BDE8F09F70B5044690F8340014
:102A600000F00F00022802D04FF0FF3070BDFDF7DC
:102A70007BFB054604F11400FFF7D0FB04F1440092
:102A800000F058F92846FDF773FB2046FFF734FDA8
:102A9000002070BD0148006870470000BC000020A5
:102AA00010B590F83610012280F835108A400221C6
:102AB000826380F83410FFF7CFFF0348006808B145
:102AC000FFF7EEFC002010BDBC00002070B50446EE
:102AD00090F8340000F00F00012802D04FF0FF30D2
:102AE00070BDFDF741FB054694F8340020F00F005F
:102AF000801C84F834002046FFF726FD04F14400D2
:102B000000F018F92846FDF733FB002070BD10B522
:102B100004466FF00100206304F11400FFF77EFB10
:102B20002046FFF7E9FCBDE81040FFF7B9BC000004
:102B300070B5FDF719FB06461348046894F8340095
:102B400000F00F00012819D1D4E90501884215D001
:102B500004F114000546FFF761FB94F835000B49BA
:102B600001EBC00041680D60416869604560286004
:102B70003046FDF7FDFAFFF793FC02E03046FDF723
:102B8000F7FA002070BD0000BC000020841B00206C
:102B9000014800687047000050000020094810B547
:102BA0000168491C0160FFF775FF016C491E016453
:102BB00003D1C16B0164FFF7BBFFBDE8104000F01B
:102BC00003B80000500000202DE9F041FFF7E0FFBE
:102BD0000646FDF7C9FA0746144D1EE060696FF01E
:102BE0000041301A143C88421AD22046FEF7D4F92C
:102BF000D4E907108847FFF7CBFF0646607A8107C4
:102C000008D5C10706D020F001006072204600F010
:102C10004BF802E020F0010060722C68AC42DDD17C
:102C20003846BDE8F041FDF7A3BA0000D00000200F
:102C300049B1012904D0022908D003290ED109E0A5
:102C4000406A10600AE01168416207E0417A21F0B1
:102C5000020102E0417A41F0020141720020704716
:102C600070B50546FDF780FA04462846FEF794F94C
:102C70002046FDF77DFA2846FFF7CAFB002070BD0D
:102C80002DE9F8439046DDE908450A461F46064609
:102C90000921FFF7DFFB23463A46414630460095BF
:102CA000FEF76CF9BDE8F883F8B50446FDF75CFA69
:102CB00005462046FEF770F9607A20F00100607248
:102CC0002846FDF755FAFFF763FF616A0844A062E2
:102CD000FDF74AFA0546164A0020009202EBC002B0
:102CE000694653686FF0004C5DF820200BE01268D5
:102CF000A2EBC0067769A66AB74202D0BE1B664542
:102D000003D341F820209A42F1D10948001F0168FD
:102D1000491C016004F114010098FFF75FFA607A22
:102D200040F0010060722846FDF722FA0020F8BD4D
:102D3000D000002070B50446407AC0070ED0FDF7E1
:102D400013FA05462046FEF727F92846FDF710FA44
:102D5000607A20F001006072002070BD4FF0FF30FB
:102D600070BD00002DE9FF4F471804467F1E83B059
:102D700080464FF0FF394FF0200A4FF0250BA74255
:102D800000D24F4608E1252803D0BC4200D820706D
:102D900081E000260599491C059108782D2811D05D
:102DA0002B2812D0202813D0232814D0302815D057
:102DB0000A784D46303A0A2A13D205A800F029F9BC
:102DC00005461AE046F01006E4E746F00406E1E79F
:102DD00046F00806DEE746F02006DBE746F001068F
:102DE000D8E72A2809D10698491C059120C80690E1
:102DF000002D02DA6D4246F01006CDF800900598DD
:102E000001782E2918D1401C05900178A1F13002DB
:102E10000A2A04D205A800F0FCF8009008E02A294C
:102E200008D1401C0590069802C8069000910846FB
:102E3000002801DA00200090059A00201178682906
:102E400001D06C2902D1521C0846059211780A2340
:102E50006F296ED00CDC63291FD004DC252979D0C2
:102E600058290DD17FE0642901D0692908D17EE07D
:102E7000702960D073292CD075297AD0782974D024
:102E8000BC4201D884F800B00598641C0178D1B325
:102E9000BC4200D82170641C7BE0F00608D4504688
:102EA0006D1E002D04DDBC4200D82070641CF7E7C5
:102EB0000698BC4210F8041B069000D821705046BA
:102EC00002E0BC4200D82070641C6D1E002DF8DCAE
:102ED0005FE0069808C8069003B93DA31846FFF7BF
:102EE00043FC0099002902DD884200DD0846F10616
:102EF0000AD451462A466D1E824205DDBC4200D8E6
:102F00002170641CF6E750E0002106E0BC4201D8C5
:102F10001A782270491C5B1C641C8142F6DB524605
:102F200029466D1E814234DDBC4200D82270641CEB
:102F3000F6E716E00EE0681C02D1082546F001060F
:102F400000980296CDE9005006981023394604C82F
:102F500006901AE0BC429ED884F800B09BE708E0D7
:102F600003E0082305E046F04006102301E046F0A8
:102F700002066C2801D068281AD0069804C806906A
:102F800000983946CDE9005002962046FEF748FDEC
:102F900004460598401C05900598007800287FF4A9
:102FA000F2AEBC420DD820700CE0401E0590F0E758
:102FB000069830F8041B06908AB2B007E0D512B22A
:102FC000DEE7387007B0A4EB0800BDE8F08F000022
:102FD000284E554C4C2900000020704700207047B7
:102FE000002070470020704710B5FDF7BDF8FEF7D0
:102FF00057FFFFF761FBFFF767FCFFF737FCFEF7B2
:10300000A7FDFFF767FCFFF7F3FCFFF749FC002083
:1030100010BD10B5014600206FF02F0307E0541CCF
:103020000C60127800EB800003EB400010440A684B
:103030001478303C0A2CF2D310BD000010B518A053
:10304000FFF79AF81A4C21881AA0FFF795F8208804
:10305000C00702D01DA0FFF78FF82088800702D597
:103060001DA0FFF789F82088400702D51DA0FFF7B3
:1030700083F82088000702D51CA0FFF77DF8208880
:10308000C00502D51BA0FFF777F82088800502D580
:103090001BA0FFF771F8BDE8104004A0FFF76CB863
:1030A0007573616765206661756C743A0A0000008B
:1030B0002AED00E05343425F434653525F55465367
:1030C000523A30782530325820000000554E4445A1
:1030D00046494E5354522000494E5653544154458C
:1030E00020000000494E5650432000004E4F4350F0
:1030F00020000000554E414C49474E4544200000F9
:1031000044495642595A45524F20000010B5FFF726
:10311000D3FA002010BD00000000000000000102F2
:103120000304060708090000010002000100030073
:103130000100020001000400010002000100030080
:10314000010002000100050001000200010003006F
:103150000100020001000400010002000100030060
:10316000010002000100060001000200010003004E
:103170000100020001000400010002000100030040
:10318000010002000100050001000200010003002F
:103190000100020001000400010002000100030020
:1031A000010002000100070001000200010003000D
:1031B0000100020001000400010002000100030000
:1031C00001000200010005000100020001000300EF
:1031D00001000200010004000100020001000300E0
:1031E00001000200010006000100020001000300CE
:1031F00001000200010004000100020001000300C0
:1032000001000200010005000100020001000300AE
:10321000010002000100040001000200010003009F
:10322000010002000100303132333435363738398D
:103230006162636465660030313233343536373865
:1032400039414243444546006C6973745F74687247
:10325000656164006C6973745F73656D00000000E4
:1032600076657273696F6E0068656C6C6F00000044
:103270006C6973745F74696D657200006C69737456
:1032800000000000252D2A2E732070726920207303
:1032900074617475732020202020207370202020FA
:1032A0002020737461636B2073697A65206D617887
:1032B0002075736564206C656674207469636B2087
:1032C000206572726F720A00E52F0008DD2F00087A
:1032D000D92F0008B1110008E12F0008FC320008C6
:1032E00000000020E8000000BC0A0008E4330008E9
:1032F000E8000020A01F0000CC0A00080100000028
:10330000100000000000000000A24A0400000000BD
:1033100000000000683200086D15000860320008E7
:103320000D3100087C3200088D1500084832000875
:10333000F315000854320008E11500087032000847
:1033400005160008180000204800002000000000BA
:10335000000000000000000000000000000000006D
:10336000000000000000000000000000000000005D
:1033700000000000000000007C0000207C00002015
:1033800078000000010000008C0000208C0000206C
:1033900020000000080000009C0000209C0000208D
:1033A0004000000009000000AC000020AC0000203C
:1033B0002C000000000000000000000000000000E1
:1033C00000000000000000000000000000000000FD
:1033D00000000000000000000000000000000000ED
:0433E00000000000E9
:0400000508000131BD
:00000001FF
